{
  "contractName": "Merkle",
  "abi": [
    {
      "inputs": [
        {
          "internalType": "bytes32",
          "name": "_whitelistHash",
          "type": "bytes32"
        }
      ],
      "stateMutability": "nonpayable",
      "type": "constructor"
    },
    {
      "inputs": [],
      "name": "OwnerOnly",
      "outputs": [
        {
          "internalType": "address",
          "name": "",
          "type": "address"
        }
      ],
      "stateMutability": "view",
      "type": "function"
    },
    {
      "inputs": [
        {
          "internalType": "bytes32",
          "name": "leaf",
          "type": "bytes32"
        },
        {
          "internalType": "bytes32[]",
          "name": "proof",
          "type": "bytes32[]"
        }
      ],
      "name": "_whitelistHashVerify",
      "outputs": [
        {
          "internalType": "bool",
          "name": "",
          "type": "bool"
        }
      ],
      "stateMutability": "view",
      "type": "function"
    },
    {
      "inputs": [
        {
          "internalType": "bytes32",
          "name": "_root",
          "type": "bytes32"
        }
      ],
      "name": "setWhitelistRoot",
      "outputs": [],
      "stateMutability": "nonpayable",
      "type": "function"
    }
  ],
  "bytecode": "0x608060405234801561001057600080fd5b50604051610743380380610743833981810160405281019061003291906100bb565b8060008190555033600160006101000a81548173ffffffffffffffffffffffffffffffffffffffff021916908373ffffffffffffffffffffffffffffffffffffffff160217905550506100e8565b600080fd5b6000819050919050565b61009881610085565b81146100a357600080fd5b50565b6000815190506100b58161008f565b92915050565b6000602082840312156100d1576100d0610080565b5b60006100df848285016100a6565b91505092915050565b61064c806100f76000396000f3fe608060405234801561001057600080fd5b50600436106100415760003560e01c8063596dcdb81461004657806396b8e06214610064578063f5aa406d14610094575b600080fd5b61004e6100b0565b60405161005b919061026b565b60405180910390f35b61007e60048036038101906100799190610429565b6100d6565b60405161008b91906104a0565b60405180910390f35b6100ae60048036038101906100a991906104bb565b6100ed565b005b600160009054906101000a900473ffffffffffffffffffffffffffffffffffffffff1681565b60006100e58260005485610187565b905092915050565b600160009054906101000a900473ffffffffffffffffffffffffffffffffffffffff1673ffffffffffffffffffffffffffffffffffffffff163373ffffffffffffffffffffffffffffffffffffffff161461017d576040517f08c379a000000000000000000000000000000000000000000000000000000000815260040161017490610545565b60405180910390fd5b8060008190555050565b600082610194858461019e565b1490509392505050565b60008082905060005b84518110156102085760008582815181106101c5576101c4610565565b5b602002602001015190508083116101e7576101e08382610213565b92506101f4565b6101f18184610213565b92505b508080610200906105cd565b9150506101a7565b508091505092915050565b600082600052816020526040600020905092915050565b600073ffffffffffffffffffffffffffffffffffffffff82169050919050565b60006102558261022a565b9050919050565b6102658161024a565b82525050565b6000602082019050610280600083018461025c565b92915050565b6000604051905090565b600080fd5b600080fd5b6000819050919050565b6102ad8161029a565b81146102b857600080fd5b50565b6000813590506102ca816102a4565b92915050565b600080fd5b6000601f19601f8301169050919050565b7f4e487b7100000000000000000000000000000000000000000000000000000000600052604160045260246000fd5b61031e826102d5565b810181811067ffffffffffffffff8211171561033d5761033c6102e6565b5b80604052505050565b6000610350610286565b905061035c8282610315565b919050565b600067ffffffffffffffff82111561037c5761037b6102e6565b5b602082029050602081019050919050565b600080fd5b60006103a56103a084610361565b610346565b905080838252602082019050602084028301858111156103c8576103c761038d565b5b835b818110156103f157806103dd88826102bb565b8452602084019350506020810190506103ca565b5050509392505050565b600082601f8301126104105761040f6102d0565b5b8135610420848260208601610392565b91505092915050565b600080604083850312156104405761043f610290565b5b600061044e858286016102bb565b925050602083013567ffffffffffffffff81111561046f5761046e610295565b5b61047b858286016103fb565b9150509250929050565b60008115159050919050565b61049a81610485565b82525050565b60006020820190506104b56000830184610491565b92915050565b6000602082840312156104d1576104d0610290565b5b60006104df848285016102bb565b91505092915050565b600082825260208201905092915050565b7f4f6e6c79206f6e6c794f776e657263616e2063616c6c20746869730000000000600082015250565b600061052f601b836104e8565b915061053a826104f9565b602082019050919050565b6000602082019050818103600083015261055e81610522565b9050919050565b7f4e487b7100000000000000000000000000000000000000000000000000000000600052603260045260246000fd5b7f4e487b7100000000000000000000000000000000000000000000000000000000600052601160045260246000fd5b6000819050919050565b60006105d8826105c3565b91507fffffffffffffffffffffffffffffffffffffffffffffffffffffffffffffffff82141561060b5761060a610594565b5b60018201905091905056fea264697066735822122030cb8ac42fd053f4ea4a8001981ccbc6704e9e1973a22dcf015964617982526164736f6c634300080b0033",
  "immutableReferences": {},
  "source": "// SPDX-License-Identifier: MIT\npragma solidity ^0.8.2;\n\nimport \"@openzeppelin/contracts/token/ERC1155/ERC1155.sol\";\nimport \"@openzeppelin/contracts/security/ReentrancyGuard.sol\";\nimport \"@openzeppelin/contracts/utils/math/SafeMath.sol\";\nimport \"@openzeppelin/contracts/utils/Counters.sol\";\nimport \"@openzeppelin/contracts/utils/Strings.sol\";\n\nimport \"@openzeppelin/contracts/utils/cryptography/MerkleProof.sol\";\n\n// import \"@openzeppelin/contracts/access/Ownable.sol\";\n\ninterface IERC20 {\n    /**\n     * @dev Returns the amount of tokens in existence.\n     */\n    function totalSupply() external view returns (uint256);\n\n    /**\n     * @dev Returns the amount of tokens owned by `account`.\n     */\n    function balanceOf(address account) external view returns (uint256);\n\n    /**\n     * @dev Moves `amount` tokens from the caller's account to `to`.\n     *\n     * Returns a boolean value indicating whether the operation succeeded.\n     *\n     * Emits a {Transfer} event.\n     */\n    function transfer(address to, uint256 amount) external returns (bool);\n\n    /**\n     * @dev Returns the remaining number of tokens that `spender` will be\n     * allowed to spend on behalf of `owner` through {transferFrom}. This is\n     * zero by default.\n     *\n     * This value changes when {approve} or {transferFrom} are called.\n     */\n    function allowance(address owner, address spender)\n        external\n        view\n        returns (uint256);\n\n    /**\n     * @dev Sets `amount` as the allowance of `spender` over the caller's tokens.\n     *\n     * Returns a boolean value indicating whether the operation succeeded.\n     *\n     * IMPORTANT: Beware that changing an allowance with this method brings the risk\n     * that someone may use both the old and the new allowance by unfortunate\n     * transaction ordering. One possible solution to mitigate this race\n     * condition is to first reduce the spender's allowance to 0 and set the\n     * desired value afterwards:\n     * https://github.com/ethereum/EIPs/issues/20#issuecomment-263524729\n     *\n     * Emits an {Approval} event.\n     */\n    function approve(address spender, uint256 amount) external returns (bool);\n\n    /**\n     * @dev Moves `amount` tokens from `from` to `to` using the\n     * allowance mechanism. `amount` is then deducted from the caller's\n     * allowance.\n     *\n     * Returns a boolean value indicating whether the operation succeeded.\n     *\n     * Emits a {Transfer} event.\n     */\n    function transferFrom(\n        address from,\n        address to,\n        uint256 amount\n    ) external returns (bool);\n\n    /**\n     * @dev Emitted when `value` tokens are moved from one account (`from`) to\n     * another (`to`).\n     *\n     * Note that `value` may be zero.\n     */\n    event Transfer(address indexed from, address indexed to, uint256 value);\n\n    /**\n     * @dev Emitted when the allowance of a `spender` for an `owner` is set by\n     * a call to {approve}. `value` is the new allowance.\n     */\n    event Approval(\n        address indexed owner,\n        address indexed spender,\n        uint256 value\n    );\n}\n\ncontract Merkle {\n    bytes32 private whitelist;\n    //////////////////////////////\n    address public OwnerOnly;\n\n    constructor(bytes32 _whitelistHash) {\n        whitelist = _whitelistHash;\n        OwnerOnly = msg.sender;\n    }\n\n    // Modifiers\n    modifier onlyOwner() {\n        require((msg.sender == OwnerOnly), \"Only onlyOwnercan call this\");\n        _;\n    }\n\n    function _whitelistHashLeaf(address account)\n        internal\n        pure\n        returns (bytes32)\n    {\n        return keccak256(abi.encodePacked(account));\n    }\n\n    function _whitelistHashVerify(bytes32 leaf, bytes32[] memory proof)\n        public\n        view\n        returns (bool)\n    {\n        return MerkleProof.verify(proof, whitelist, leaf);\n    }\n\n    function setWhitelistRoot(bytes32 _root) external onlyOwner {\n        whitelist = _root;\n    }\n}\n\ncontract OneOneFive is ERC1155, Merkle, ReentrancyGuard {\n    using Counters for Counters.Counter;\n    Counters.Counter public _itemsSold;\n\n    using SafeMath for uint256;\n\n    string public constant name = \"OneOneFive\";\n    string public constant symbol = \"OOF\";\n\n    uint256 public totalSupply = 0;\n\n    uint256 public constant presalePriceInEth = 0.05 ether;\n    uint256 public constant publicsalePriceInEth = 1 ether;\n\n    uint256 public preSaleStart; //Epoch & Unix Timestamp Conversion Tools aug1\n\n    uint256 public constant preSaleMaxSupply = 111;\n\n    uint256 public publicSaleStart; //Epoch & Unix Timestamp Conversion Tools aug16\n\n    uint256 public publicSaleMaxSupply = 444;\n\n    uint256 constant MAX_Pre_INTERACTIONS = 1;\n    uint256 constant MAX_Public_INTERACTIONS = 3;\n\n    uint256[] minted = [0, 0, 0];\n    uint256 public presaleRemaining;\n    uint256 public remaingtoken;\n    uint256 public saleClose;\n\n    mapping(address => bool) public isOwner;\n\n    bool public onlyWhitelisted = true;\n\n    string public baseURI = \"ipfs://THISISTHECID/\";\n    bool public revealed = false;\n\n    mapping(address => uint256) interactionCount;\n\n    modifier limit() {\n        require(\n            interactionCount[msg.sender] < MAX_Pre_INTERACTIONS,\n            \"only 1 option\"\n        );\n        interactionCount[msg.sender]++;\n\n        _;\n    }\n\n    modifier publiclimit() {\n        require(\n            interactionCount[msg.sender] < MAX_Public_INTERACTIONS,\n            \"only 3 option\"\n        );\n        interactionCount[msg.sender]++;\n\n        _;\n    }\n\n    mapping(address => uint256) whitelist;\n    mapping(address => uint256) publiclist;\n\n    constructor(bytes32 _whitelistHashHashRoot, string memory uri)\n        payable\n        Merkle(_whitelistHashHashRoot)\n        ERC1155(uri)\n    {}\n\n    function setURI(string memory uri) public onlyOwner {\n        _setURI(uri);\n    }\n\n    /////////////////////////////PRESALE PUBLICSALE TIME CHECKING//////////\n    function setPreSaleStart(uint256 timestamp) public onlyOwner {\n        preSaleStart = timestamp;\n        saleClose = 2 minutes + timestamp;\n    }\n\n    function setPublicSaleStart(uint256 timestamp) public onlyOwner {\n        publicSaleStart = timestamp;\n    }\n\n    function preSaleIsActive() public view returns (bool) {\n        return preSaleStart <= block.timestamp;\n    }\n\n    function publicSaleIsActive() public view returns (bool) {\n        return (block.timestamp >= saleClose);\n    }\n\n    /////////---------------------------------minting--public-----------------------------/////////////\n\n    function mint(\n        uint256 id,\n        uint256 count,\n        bytes32[] calldata proof\n    ) public payable limit {\n        require(preSaleIsActive(), \"Pre-sale is not active.\");\n\n        require(msg.value == presalePriceInEth.mul(count), \"Not enough ether.\");\n\n        require(\n            _whitelistHashVerify(_whitelistHashLeaf(msg.sender), proof),\n            \"You are not whitelisted.\"\n        );\n        require(\n            totalSupply < preSaleMaxSupply,\n            \"Count exceeds the maximum allowed supply.\"\n        );\n\n        uint256 index = id - 1;\n        _mint(msg.sender, id, count, \"\");\n        minted[index] += count;\n        _itemsSold.increment();\n    }\n\n    function _baseURI() internal view returns (string memory) {\n        return baseURI;\n    }\n\n    function changeBaseURI(string memory baseURI_) public onlyOwner {\n        baseURI = baseURI_;\n    }\n\n    function changeRevealed(bool _revealed) public onlyOwner {\n        revealed = _revealed;\n    }\n\n    function tokenURI(uint256 tokenId) public view returns (string memory) {\n        string memory baseURI_ = _baseURI();\n\n        if (revealed) {\n            return\n                bytes(baseURI_).length > 0\n                    ? string(\n                        abi.encodePacked(\n                            baseURI_,\n                            Strings.toString(tokenId),\n                            \".json\"\n                        )\n                    )\n                    : \"\";\n        } else {\n            return string(abi.encodePacked(baseURI_, \"hidden.json\"));\n        }\n    }\n\n    function unsolded() public returns (uint256) {\n        uint256 presaleRemainingvar = preSaleMaxSupply - _itemsSold.current();\n        remaingtoken = presaleRemainingvar + publicSaleMaxSupply;\n        return remaingtoken;\n    }\n\n    function getUnsolded() external view returns (uint256) {\n        return remaingtoken;\n    }\n\n    function publicSaleMintf(address to, uint256 count) internal {\n        if (count > 1) {\n            uint256[] memory ids = new uint256[](uint256(count));\n            uint256[] memory amounts = new uint256[](uint256(count));\n\n            for (uint256 i = 0; i < count; i++) {\n                ids[i] = totalSupply + i;\n                amounts[i] = 1;\n            }\n\n            _mintBatch(to, ids, amounts, \"\");\n\n            for (uint256 i = 0; i < count; i++) {}\n        } else {\n            _mint(to, totalSupply, 1, \"\");\n        }\n\n        totalSupply += count;\n    }\n\n    function publicSaleMint(uint256 count) internal nonReentrant {\n        require(publicSaleIsActive(), \"Public sale is not active.\");\n        require(count > 0, \"Count must be greater than 0.\");\n        //\n        require(\n            totalSupply + count > remaingtoken,\n            \"Count exceeds the maximum allowed supply.\"\n        );\n\n        publicSaleMintf(msg.sender, count);\n        publiclist[msg.sender] += count;\n    }\n\n    function publicSaleMintWithEth(uint256 count) external payable {\n        require(\n            msg.value == publicsalePriceInEth.mul(count),\n            \"Not enough ether.\"\n        );\n        publicSaleMint(count);\n    }\n\n    function getBalance() public view returns (uint256) {\n        return address(this).balance;\n    }\n\n    function withdrawMoney() public onlyOwner {\n        uint256 balance = address(this).balance;\n        require(balance > 0, \"not have enough balance\");\n        address payable to = payable(msg.sender);\n        to.transfer(balance);\n    }\n}\n",
  "sourcePath": "/home/nextazy/Documents/Ethereum/crud (1)/erc1155/contracts/OneOneFive.sol",
  "compiler": {
    "name": "solc",
    "version": "0.8.11+commit.d7f03943.Emscripten.clang"
  },
  "schemaVersion": "3.4.5",
  "updatedAt": "2022-06-15T07:02:37.761Z",
  "devdoc": {
    "kind": "dev",
    "methods": {},
    "version": 1
  },
  "userdoc": {
    "kind": "user",
    "methods": {},
    "version": 1
  }
}