{
  "contractName": "OneOneFive",
  "abi": [
    {
      "inputs": [
        {
          "internalType": "bytes32",
          "name": "_whitelistHashHashRoot",
          "type": "bytes32"
        },
        {
          "internalType": "string",
          "name": "uri",
          "type": "string"
        }
      ],
      "stateMutability": "payable",
      "type": "constructor",
      "payable": true
    },
    {
      "anonymous": false,
      "inputs": [
        {
          "indexed": true,
          "internalType": "address",
          "name": "account",
          "type": "address"
        },
        {
          "indexed": true,
          "internalType": "address",
          "name": "operator",
          "type": "address"
        },
        {
          "indexed": false,
          "internalType": "bool",
          "name": "approved",
          "type": "bool"
        }
      ],
      "name": "ApprovalForAll",
      "type": "event"
    },
    {
      "anonymous": false,
      "inputs": [
        {
          "indexed": true,
          "internalType": "address",
          "name": "operator",
          "type": "address"
        },
        {
          "indexed": true,
          "internalType": "address",
          "name": "from",
          "type": "address"
        },
        {
          "indexed": true,
          "internalType": "address",
          "name": "to",
          "type": "address"
        },
        {
          "indexed": false,
          "internalType": "uint256[]",
          "name": "ids",
          "type": "uint256[]"
        },
        {
          "indexed": false,
          "internalType": "uint256[]",
          "name": "values",
          "type": "uint256[]"
        }
      ],
      "name": "TransferBatch",
      "type": "event"
    },
    {
      "anonymous": false,
      "inputs": [
        {
          "indexed": true,
          "internalType": "address",
          "name": "operator",
          "type": "address"
        },
        {
          "indexed": true,
          "internalType": "address",
          "name": "from",
          "type": "address"
        },
        {
          "indexed": true,
          "internalType": "address",
          "name": "to",
          "type": "address"
        },
        {
          "indexed": false,
          "internalType": "uint256",
          "name": "id",
          "type": "uint256"
        },
        {
          "indexed": false,
          "internalType": "uint256",
          "name": "value",
          "type": "uint256"
        }
      ],
      "name": "TransferSingle",
      "type": "event"
    },
    {
      "anonymous": false,
      "inputs": [
        {
          "indexed": false,
          "internalType": "string",
          "name": "value",
          "type": "string"
        },
        {
          "indexed": true,
          "internalType": "uint256",
          "name": "id",
          "type": "uint256"
        }
      ],
      "name": "URI",
      "type": "event"
    },
    {
      "inputs": [],
      "name": "OwnerOnly",
      "outputs": [
        {
          "internalType": "address",
          "name": "",
          "type": "address"
        }
      ],
      "stateMutability": "view",
      "type": "function",
      "constant": true
    },
    {
      "inputs": [],
      "name": "_itemsSold",
      "outputs": [
        {
          "internalType": "uint256",
          "name": "_value",
          "type": "uint256"
        }
      ],
      "stateMutability": "view",
      "type": "function",
      "constant": true
    },
    {
      "inputs": [
        {
          "internalType": "bytes32",
          "name": "leaf",
          "type": "bytes32"
        },
        {
          "internalType": "bytes32[]",
          "name": "proof",
          "type": "bytes32[]"
        }
      ],
      "name": "_whitelistHashVerify",
      "outputs": [
        {
          "internalType": "bool",
          "name": "",
          "type": "bool"
        }
      ],
      "stateMutability": "view",
      "type": "function",
      "constant": true
    },
    {
      "inputs": [
        {
          "internalType": "address",
          "name": "account",
          "type": "address"
        },
        {
          "internalType": "uint256",
          "name": "id",
          "type": "uint256"
        }
      ],
      "name": "balanceOf",
      "outputs": [
        {
          "internalType": "uint256",
          "name": "",
          "type": "uint256"
        }
      ],
      "stateMutability": "view",
      "type": "function",
      "constant": true
    },
    {
      "inputs": [
        {
          "internalType": "address[]",
          "name": "accounts",
          "type": "address[]"
        },
        {
          "internalType": "uint256[]",
          "name": "ids",
          "type": "uint256[]"
        }
      ],
      "name": "balanceOfBatch",
      "outputs": [
        {
          "internalType": "uint256[]",
          "name": "",
          "type": "uint256[]"
        }
      ],
      "stateMutability": "view",
      "type": "function",
      "constant": true
    },
    {
      "inputs": [],
      "name": "baseURI",
      "outputs": [
        {
          "internalType": "string",
          "name": "",
          "type": "string"
        }
      ],
      "stateMutability": "view",
      "type": "function",
      "constant": true
    },
    {
      "inputs": [
        {
          "internalType": "address",
          "name": "account",
          "type": "address"
        },
        {
          "internalType": "address",
          "name": "operator",
          "type": "address"
        }
      ],
      "name": "isApprovedForAll",
      "outputs": [
        {
          "internalType": "bool",
          "name": "",
          "type": "bool"
        }
      ],
      "stateMutability": "view",
      "type": "function",
      "constant": true
    },
    {
      "inputs": [
        {
          "internalType": "address",
          "name": "",
          "type": "address"
        }
      ],
      "name": "isOwner",
      "outputs": [
        {
          "internalType": "bool",
          "name": "",
          "type": "bool"
        }
      ],
      "stateMutability": "view",
      "type": "function",
      "constant": true
    },
    {
      "inputs": [],
      "name": "name",
      "outputs": [
        {
          "internalType": "string",
          "name": "",
          "type": "string"
        }
      ],
      "stateMutability": "view",
      "type": "function",
      "constant": true
    },
    {
      "inputs": [],
      "name": "onlyWhitelisted",
      "outputs": [
        {
          "internalType": "bool",
          "name": "",
          "type": "bool"
        }
      ],
      "stateMutability": "view",
      "type": "function",
      "constant": true
    },
    {
      "inputs": [],
      "name": "preSaleMaxSupply",
      "outputs": [
        {
          "internalType": "uint256",
          "name": "",
          "type": "uint256"
        }
      ],
      "stateMutability": "view",
      "type": "function",
      "constant": true
    },
    {
      "inputs": [],
      "name": "preSaleStart",
      "outputs": [
        {
          "internalType": "uint256",
          "name": "",
          "type": "uint256"
        }
      ],
      "stateMutability": "view",
      "type": "function",
      "constant": true
    },
    {
      "inputs": [],
      "name": "presalePriceInEth",
      "outputs": [
        {
          "internalType": "uint256",
          "name": "",
          "type": "uint256"
        }
      ],
      "stateMutability": "view",
      "type": "function",
      "constant": true
    },
    {
      "inputs": [],
      "name": "presaleRemaining",
      "outputs": [
        {
          "internalType": "uint256",
          "name": "",
          "type": "uint256"
        }
      ],
      "stateMutability": "view",
      "type": "function",
      "constant": true
    },
    {
      "inputs": [],
      "name": "publicSaleMaxSupply",
      "outputs": [
        {
          "internalType": "uint256",
          "name": "",
          "type": "uint256"
        }
      ],
      "stateMutability": "view",
      "type": "function",
      "constant": true
    },
    {
      "inputs": [],
      "name": "publicSaleStart",
      "outputs": [
        {
          "internalType": "uint256",
          "name": "",
          "type": "uint256"
        }
      ],
      "stateMutability": "view",
      "type": "function",
      "constant": true
    },
    {
      "inputs": [],
      "name": "publicsalePriceInEth",
      "outputs": [
        {
          "internalType": "uint256",
          "name": "",
          "type": "uint256"
        }
      ],
      "stateMutability": "view",
      "type": "function",
      "constant": true
    },
    {
      "inputs": [],
      "name": "remaingtoken",
      "outputs": [
        {
          "internalType": "uint256",
          "name": "",
          "type": "uint256"
        }
      ],
      "stateMutability": "view",
      "type": "function",
      "constant": true
    },
    {
      "inputs": [],
      "name": "revealed",
      "outputs": [
        {
          "internalType": "bool",
          "name": "",
          "type": "bool"
        }
      ],
      "stateMutability": "view",
      "type": "function",
      "constant": true
    },
    {
      "inputs": [
        {
          "internalType": "address",
          "name": "from",
          "type": "address"
        },
        {
          "internalType": "address",
          "name": "to",
          "type": "address"
        },
        {
          "internalType": "uint256[]",
          "name": "ids",
          "type": "uint256[]"
        },
        {
          "internalType": "uint256[]",
          "name": "amounts",
          "type": "uint256[]"
        },
        {
          "internalType": "bytes",
          "name": "data",
          "type": "bytes"
        }
      ],
      "name": "safeBatchTransferFrom",
      "outputs": [],
      "stateMutability": "nonpayable",
      "type": "function"
    },
    {
      "inputs": [
        {
          "internalType": "address",
          "name": "from",
          "type": "address"
        },
        {
          "internalType": "address",
          "name": "to",
          "type": "address"
        },
        {
          "internalType": "uint256",
          "name": "id",
          "type": "uint256"
        },
        {
          "internalType": "uint256",
          "name": "amount",
          "type": "uint256"
        },
        {
          "internalType": "bytes",
          "name": "data",
          "type": "bytes"
        }
      ],
      "name": "safeTransferFrom",
      "outputs": [],
      "stateMutability": "nonpayable",
      "type": "function"
    },
    {
      "inputs": [],
      "name": "saleClose",
      "outputs": [
        {
          "internalType": "uint256",
          "name": "",
          "type": "uint256"
        }
      ],
      "stateMutability": "view",
      "type": "function",
      "constant": true
    },
    {
      "inputs": [
        {
          "internalType": "address",
          "name": "operator",
          "type": "address"
        },
        {
          "internalType": "bool",
          "name": "approved",
          "type": "bool"
        }
      ],
      "name": "setApprovalForAll",
      "outputs": [],
      "stateMutability": "nonpayable",
      "type": "function"
    },
    {
      "inputs": [
        {
          "internalType": "bytes32",
          "name": "_root",
          "type": "bytes32"
        }
      ],
      "name": "setWhitelistRoot",
      "outputs": [],
      "stateMutability": "nonpayable",
      "type": "function"
    },
    {
      "inputs": [
        {
          "internalType": "bytes4",
          "name": "interfaceId",
          "type": "bytes4"
        }
      ],
      "name": "supportsInterface",
      "outputs": [
        {
          "internalType": "bool",
          "name": "",
          "type": "bool"
        }
      ],
      "stateMutability": "view",
      "type": "function",
      "constant": true
    },
    {
      "inputs": [],
      "name": "symbol",
      "outputs": [
        {
          "internalType": "string",
          "name": "",
          "type": "string"
        }
      ],
      "stateMutability": "view",
      "type": "function",
      "constant": true
    },
    {
      "inputs": [],
      "name": "totalSupply",
      "outputs": [
        {
          "internalType": "uint256",
          "name": "",
          "type": "uint256"
        }
      ],
      "stateMutability": "view",
      "type": "function",
      "constant": true
    },
    {
      "inputs": [
        {
          "internalType": "uint256",
          "name": "",
          "type": "uint256"
        }
      ],
      "name": "uri",
      "outputs": [
        {
          "internalType": "string",
          "name": "",
          "type": "string"
        }
      ],
      "stateMutability": "view",
      "type": "function",
      "constant": true
    },
    {
      "inputs": [
        {
          "internalType": "string",
          "name": "uri",
          "type": "string"
        }
      ],
      "name": "setURI",
      "outputs": [],
      "stateMutability": "nonpayable",
      "type": "function"
    },
    {
      "inputs": [
        {
          "internalType": "uint256",
          "name": "timestamp",
          "type": "uint256"
        }
      ],
      "name": "setPreSaleStart",
      "outputs": [],
      "stateMutability": "nonpayable",
      "type": "function"
    },
    {
      "inputs": [
        {
          "internalType": "uint256",
          "name": "timestamp",
          "type": "uint256"
        }
      ],
      "name": "setPublicSaleStart",
      "outputs": [],
      "stateMutability": "nonpayable",
      "type": "function"
    },
    {
      "inputs": [],
      "name": "preSaleIsActive",
      "outputs": [
        {
          "internalType": "bool",
          "name": "",
          "type": "bool"
        }
      ],
      "stateMutability": "view",
      "type": "function",
      "constant": true
    },
    {
      "inputs": [],
      "name": "publicSaleIsActive",
      "outputs": [
        {
          "internalType": "bool",
          "name": "",
          "type": "bool"
        }
      ],
      "stateMutability": "view",
      "type": "function",
      "constant": true
    },
    {
      "inputs": [
        {
          "internalType": "uint256",
          "name": "id",
          "type": "uint256"
        },
        {
          "internalType": "uint256",
          "name": "count",
          "type": "uint256"
        },
        {
          "internalType": "bytes32[]",
          "name": "proof",
          "type": "bytes32[]"
        }
      ],
      "name": "mint",
      "outputs": [],
      "stateMutability": "payable",
      "type": "function",
      "payable": true
    },
    {
      "inputs": [
        {
          "internalType": "string",
          "name": "baseURI_",
          "type": "string"
        }
      ],
      "name": "changeBaseURI",
      "outputs": [],
      "stateMutability": "nonpayable",
      "type": "function"
    },
    {
      "inputs": [
        {
          "internalType": "bool",
          "name": "_revealed",
          "type": "bool"
        }
      ],
      "name": "changeRevealed",
      "outputs": [],
      "stateMutability": "nonpayable",
      "type": "function"
    },
    {
      "inputs": [
        {
          "internalType": "uint256",
          "name": "tokenId",
          "type": "uint256"
        }
      ],
      "name": "tokenURI",
      "outputs": [
        {
          "internalType": "string",
          "name": "",
          "type": "string"
        }
      ],
      "stateMutability": "view",
      "type": "function",
      "constant": true
    },
    {
      "inputs": [],
      "name": "unsolded",
      "outputs": [
        {
          "internalType": "uint256",
          "name": "",
          "type": "uint256"
        }
      ],
      "stateMutability": "nonpayable",
      "type": "function"
    },
    {
      "inputs": [],
      "name": "getUnsolded",
      "outputs": [
        {
          "internalType": "uint256",
          "name": "",
          "type": "uint256"
        }
      ],
      "stateMutability": "view",
      "type": "function",
      "constant": true
    },
    {
      "inputs": [
        {
          "internalType": "uint256",
          "name": "count",
          "type": "uint256"
        }
      ],
      "name": "publicSaleMintWithEth",
      "outputs": [],
      "stateMutability": "payable",
      "type": "function",
      "payable": true
    },
    {
      "inputs": [],
      "name": "getBalance",
      "outputs": [
        {
          "internalType": "uint256",
          "name": "",
          "type": "uint256"
        }
      ],
      "stateMutability": "view",
      "type": "function",
      "constant": true
    },
    {
      "inputs": [],
      "name": "withdrawMoney",
      "outputs": [],
      "stateMutability": "nonpayable",
      "type": "function"
    }
  ],
  "bytecode": "0x608060405260006007556101bc600a556040518060600160405280600060ff168152602001600060ff168152602001600060ff16815250600b906003620000489291906200017b565b506001601060006101000a81548160ff0219169083151502179055506040518060400160405280601481526020017f697066733a2f2f5448495349535448454349442f00000000000000000000000081525060119080519060200190620000b1929190620001d2565b506000601260006101000a81548160ff021916908315150217905550604051620053d5380380620053d58339818101604052810190620000f291906200045a565b818162000105816200015f60201b60201c565b508060038190555033600460006101000a81548173ffffffffffffffffffffffffffffffffffffffff021916908373ffffffffffffffffffffffffffffffffffffffff160217905550506001600581905550505062000525565b806002908051906020019062000177929190620001d2565b5050565b828054828255906000526020600020908101928215620001bf579160200282015b82811115620001be578251829060ff169055916020019190600101906200019c565b5b509050620001ce919062000263565b5090565b828054620001e090620004ef565b90600052602060002090601f01602090048101928262000204576000855562000250565b82601f106200021f57805160ff191683800117855562000250565b8280016001018555821562000250579182015b828111156200024f57825182559160200191906001019062000232565b5b5090506200025f919062000263565b5090565b5b808211156200027e57600081600090555060010162000264565b5090565b6000604051905090565b600080fd5b600080fd5b6000819050919050565b620002ab8162000296565b8114620002b757600080fd5b50565b600081519050620002cb81620002a0565b92915050565b600080fd5b600080fd5b6000601f19601f8301169050919050565b7f4e487b7100000000000000000000000000000000000000000000000000000000600052604160045260246000fd5b6200032682620002db565b810181811067ffffffffffffffff82111715620003485762000347620002ec565b5b80604052505050565b60006200035d62000282565b90506200036b82826200031b565b919050565b600067ffffffffffffffff8211156200038e576200038d620002ec565b5b6200039982620002db565b9050602081019050919050565b60005b83811015620003c6578082015181840152602081019050620003a9565b83811115620003d6576000848401525b50505050565b6000620003f3620003ed8462000370565b62000351565b905082815260208101848484011115620004125762000411620002d6565b5b6200041f848285620003a6565b509392505050565b600082601f8301126200043f576200043e620002d1565b5b815162000451848260208601620003dc565b91505092915050565b600080604083850312156200047457620004736200028c565b5b60006200048485828601620002ba565b925050602083015167ffffffffffffffff811115620004a857620004a762000291565b5b620004b68582860162000427565b9150509250929050565b7f4e487b7100000000000000000000000000000000000000000000000000000000600052602260045260246000fd5b600060028204905060018216806200050857607f821691505b602082108114156200051f576200051e620004c0565b5b50919050565b614ea080620005356000396000f3fe6080604052600436106102505760003560e01c806365fcfd2411610139578063ac446002116100b6578063e6d37b881161007a578063e6d37b88146108bd578063e985e9c5146108d9578063f0558c4014610916578063f242432a14610932578063f5aa406d1461095b578063f5f40d751461098457610250565b8063ac446002146107ea578063c87b56dd14610801578063cf3604dc1461083e578063d0de1ad614610867578063d6207c421461089257610250565b80639c70b512116100fd5780639c70b51214610715578063a18116f114610740578063a1dd2c071461076b578063a22cb46514610796578063a460bd6c146107bf57610250565b806365fcfd241461062e5780636c0360eb1461065757806387506a0d1461068257806395d89b41146106ad57806396b8e062146106d857610250565b806318160ddd116101d25780633360caa0116101965780633360caa01461051c57806339a0c6f9146105475780634e1273f41461057057806351830227146105ad578063596dcdb8146105d85780635df6d9401461060357610250565b806318160ddd146104355780631f0234d814610460578063292fef371461048b5780632eb2c2d6146104b65780632f54bf6e146104df57610250565b80630d5624b3116102195780630d5624b31461034c5780630e89341c146103775780630fcf2e75146103b457806312065fe0146103df57806314c95ddc1461040a57610250565b8062fdd58e1461025557806301ffc9a71461029257806302fe5305146102cf57806306fdde03146102f85780630ca282f714610323575b600080fd5b34801561026157600080fd5b5061027c6004803603810190610277919061314d565b6109af565b604051610289919061319c565b60405180910390f35b34801561029e57600080fd5b506102b960048036038101906102b4919061320f565b610a78565b6040516102c69190613257565b60405180910390f35b3480156102db57600080fd5b506102f660048036038101906102f191906133b8565b610b5a565b005b34801561030457600080fd5b5061030d610bf6565b60405161031a9190613489565b60405180910390f35b34801561032f57600080fd5b5061034a600480360381019061034591906134ab565b610c2f565b005b34801561035857600080fd5b50610361610cc9565b60405161036e919061319c565b60405180910390f35b34801561038357600080fd5b5061039e600480360381019061039991906134ab565b610ccf565b6040516103ab9190613489565b60405180910390f35b3480156103c057600080fd5b506103c9610d63565b6040516103d69190613257565b60405180910390f35b3480156103eb57600080fd5b506103f4610d70565b604051610401919061319c565b60405180910390f35b34801561041657600080fd5b5061041f610d78565b60405161042c919061319c565b60405180910390f35b34801561044157600080fd5b5061044a610d84565b604051610457919061319c565b60405180910390f35b34801561046c57600080fd5b50610475610d8a565b6040516104829190613257565b60405180910390f35b34801561049757600080fd5b506104a0610d97565b6040516104ad919061319c565b60405180910390f35b3480156104c257600080fd5b506104dd60048036038101906104d89190613641565b610da2565b005b3480156104eb57600080fd5b5061050660048036038101906105019190613710565b610e43565b6040516105139190613257565b60405180910390f35b34801561052857600080fd5b50610531610e63565b60405161053e919061319c565b60405180910390f35b34801561055357600080fd5b5061056e600480360381019061056991906133b8565b610e69565b005b34801561057c57600080fd5b5061059760048036038101906105929190613800565b610f13565b6040516105a49190613936565b60405180910390f35b3480156105b957600080fd5b506105c261102c565b6040516105cf9190613257565b60405180910390f35b3480156105e457600080fd5b506105ed61103f565b6040516105fa9190613967565b60405180910390f35b34801561060f57600080fd5b50610618611065565b604051610625919061319c565b60405180910390f35b34801561063a57600080fd5b50610655600480360381019061065091906134ab565b61106b565b005b34801561066357600080fd5b5061066c611118565b6040516106799190613489565b60405180910390f35b34801561068e57600080fd5b506106976111a6565b6040516106a4919061319c565b60405180910390f35b3480156106b957600080fd5b506106c26111b2565b6040516106cf9190613489565b60405180910390f35b3480156106e457600080fd5b506106ff60048036038101906106fa9190613a7b565b6111eb565b60405161070c9190613257565b60405180910390f35b34801561072157600080fd5b5061072a611202565b6040516107379190613257565b60405180910390f35b34801561074c57600080fd5b50610755611215565b604051610762919061319c565b60405180910390f35b34801561077757600080fd5b5061078061121a565b60405161078d919061319c565b60405180910390f35b3480156107a257600080fd5b506107bd60048036038101906107b89190613b03565b611220565b005b3480156107cb57600080fd5b506107d4611236565b6040516107e1919061319c565b60405180910390f35b3480156107f657600080fd5b506107ff61123c565b005b34801561080d57600080fd5b50610828600480360381019061082391906134ab565b611364565b6040516108359190613489565b60405180910390f35b34801561084a57600080fd5b5061086560048036038101906108609190613b43565b611401565b005b34801561087357600080fd5b5061087c6114ae565b604051610889919061319c565b60405180910390f35b34801561089e57600080fd5b506108a76114b8565b6040516108b4919061319c565b60405180910390f35b6108d760048036038101906108d29190613bcb565b6114be565b005b3480156108e557600080fd5b5061090060048036038101906108fb9190613c3f565b611780565b60405161090d9190613257565b60405180910390f35b610930600480360381019061092b91906134ab565b611814565b005b34801561093e57600080fd5b5061095960048036038101906109549190613c7f565b61187c565b005b34801561096757600080fd5b50610982600480360381019061097d9190613d16565b61191d565b005b34801561099057600080fd5b506109996119b7565b6040516109a6919061319c565b60405180910390f35b60008073ffffffffffffffffffffffffffffffffffffffff168373ffffffffffffffffffffffffffffffffffffffff161415610a20576040517f08c379a0000000000000000000000000000000000000000000000000000000008152600401610a1790613db5565b60405180910390fd5b60008083815260200190815260200160002060008473ffffffffffffffffffffffffffffffffffffffff1673ffffffffffffffffffffffffffffffffffffffff16815260200190815260200160002054905092915050565b60007fd9b67a26000000000000000000000000000000000000000000000000000000007bffffffffffffffffffffffffffffffffffffffffffffffffffffffff1916827bffffffffffffffffffffffffffffffffffffffffffffffffffffffff19161480610b4357507f0e89341c000000000000000000000000000000000000000000000000000000007bffffffffffffffffffffffffffffffffffffffffffffffffffffffff1916827bffffffffffffffffffffffffffffffffffffffffffffffffffffffff1916145b80610b535750610b52826119ef565b5b9050919050565b600460009054906101000a900473ffffffffffffffffffffffffffffffffffffffff1673ffffffffffffffffffffffffffffffffffffffff163373ffffffffffffffffffffffffffffffffffffffff1614610bea576040517f08c379a0000000000000000000000000000000000000000000000000000000008152600401610be190613e21565b60405180910390fd5b610bf381611a59565b50565b6040518060400160405280600a81526020017f4f6e654f6e65466976650000000000000000000000000000000000000000000081525081565b600460009054906101000a900473ffffffffffffffffffffffffffffffffffffffff1673ffffffffffffffffffffffffffffffffffffffff163373ffffffffffffffffffffffffffffffffffffffff1614610cbf576040517f08c379a0000000000000000000000000000000000000000000000000000000008152600401610cb690613e21565b60405180910390fd5b8060098190555050565b60085481565b606060028054610cde90613e70565b80601f0160208091040260200160405190810160405280929190818152602001828054610d0a90613e70565b8015610d575780601f10610d2c57610100808354040283529160200191610d57565b820191906000526020600020905b815481529060010190602001808311610d3a57829003601f168201915b50505050509050919050565b6000600e54421015905090565b600047905090565b670de0b6b3a764000081565b60075481565b6000426008541115905090565b66b1a2bc2ec5000081565b610daa611a73565b73ffffffffffffffffffffffffffffffffffffffff168573ffffffffffffffffffffffffffffffffffffffff161480610df05750610def85610dea611a73565b611780565b5b610e2f576040517f08c379a0000000000000000000000000000000000000000000000000000000008152600401610e2690613f14565b60405180910390fd5b610e3c8585858585611a7b565b5050505050565b600f6020528060005260406000206000915054906101000a900460ff1681565b60095481565b600460009054906101000a900473ffffffffffffffffffffffffffffffffffffffff1673ffffffffffffffffffffffffffffffffffffffff163373ffffffffffffffffffffffffffffffffffffffff1614610ef9576040517f08c379a0000000000000000000000000000000000000000000000000000000008152600401610ef090613e21565b60405180910390fd5b8060119080519060200190610f0f929190613002565b5050565b60608151835114610f59576040517f08c379a0000000000000000000000000000000000000000000000000000000008152600401610f5090613fa6565b60405180910390fd5b6000835167ffffffffffffffff811115610f7657610f7561328d565b5b604051908082528060200260200182016040528015610fa45781602001602082028036833780820191505090505b50905060005b845181101561102157610ff1858281518110610fc957610fc8613fc6565b5b6020026020010151858381518110610fe457610fe3613fc6565b5b60200260200101516109af565b82828151811061100457611003613fc6565b5b6020026020010181815250508061101a90614024565b9050610faa565b508091505092915050565b601260009054906101000a900460ff1681565b600460009054906101000a900473ffffffffffffffffffffffffffffffffffffffff1681565b600d5481565b600460009054906101000a900473ffffffffffffffffffffffffffffffffffffffff1673ffffffffffffffffffffffffffffffffffffffff163373ffffffffffffffffffffffffffffffffffffffff16146110fb576040517f08c379a00000000000000000000000000000000000000000000000000000000081526004016110f290613e21565b60405180910390fd5b8060088190555080607861110f919061406d565b600e8190555050565b6011805461112590613e70565b80601f016020809104026020016040519081016040528092919081815260200182805461115190613e70565b801561119e5780601f106111735761010080835404028352916020019161119e565b820191906000526020600020905b81548152906001019060200180831161118157829003601f168201915b505050505081565b60068060000154905081565b6040518060400160405280600381526020017f4f4f46000000000000000000000000000000000000000000000000000000000081525081565b60006111fa8260035485611d9d565b905092915050565b601060009054906101000a900460ff1681565b606f81565b600a5481565b61123261122b611a73565b8383611db4565b5050565b600c5481565b600460009054906101000a900473ffffffffffffffffffffffffffffffffffffffff1673ffffffffffffffffffffffffffffffffffffffff163373ffffffffffffffffffffffffffffffffffffffff16146112cc576040517f08c379a00000000000000000000000000000000000000000000000000000000081526004016112c390613e21565b60405180910390fd5b600047905060008111611314576040517f08c379a000000000000000000000000000000000000000000000000000000000815260040161130b9061410f565b60405180910390fd5b60003390508073ffffffffffffffffffffffffffffffffffffffff166108fc839081150290604051600060405180830381858888f1935050505015801561135f573d6000803e3d6000fd5b505050565b60606000611370611f21565b9050601260009054906101000a900460ff16156113d85760008151116113a557604051806020016040528060008152506113d0565b806113af84611fb3565b6040516020016113c09291906141b7565b6040516020818303038152906040525b9150506113fc565b806040516020016113e99190614232565b6040516020818303038152906040529150505b919050565b600460009054906101000a900473ffffffffffffffffffffffffffffffffffffffff1673ffffffffffffffffffffffffffffffffffffffff163373ffffffffffffffffffffffffffffffffffffffff1614611491576040517f08c379a000000000000000000000000000000000000000000000000000000000815260040161148890613e21565b60405180910390fd5b80601260006101000a81548160ff02191690831515021790555050565b6000600d54905090565b600e5481565b6001601360003373ffffffffffffffffffffffffffffffffffffffff1673ffffffffffffffffffffffffffffffffffffffff1681526020019081526020016000205410611540576040517f08c379a0000000000000000000000000000000000000000000000000000000008152600401611537906142a0565b60405180910390fd5b601360003373ffffffffffffffffffffffffffffffffffffffff1673ffffffffffffffffffffffffffffffffffffffff168152602001908152602001600020600081548092919061159090614024565b919050555061159d610d8a565b6115dc576040517f08c379a00000000000000000000000000000000000000000000000000000000081526004016115d39061430c565b60405180910390fd5b6115f68366b1a2bc2ec5000061211490919063ffffffff16565b3414611637576040517f08c379a000000000000000000000000000000000000000000000000000000000815260040161162e90614378565b60405180910390fd5b61168a6116433361212a565b838380806020026020016040519081016040528093929190818152602001838360200280828437600081840152601f19601f820116905080830192505050505050506111eb565b6116c9576040517f08c379a00000000000000000000000000000000000000000000000000000000081526004016116c0906143e4565b60405180910390fd5b606f6007541061170e576040517f08c379a000000000000000000000000000000000000000000000000000000000815260040161170590614476565b60405180910390fd5b600060018561171d9190614496565b905061173a3386866040518060200160405280600081525061215a565b83600b828154811061174f5761174e613fc6565b5b906000526020600020016000828254611768919061406d565b92505081905550611779600661230b565b5050505050565b6000600160008473ffffffffffffffffffffffffffffffffffffffff1673ffffffffffffffffffffffffffffffffffffffff16815260200190815260200160002060008373ffffffffffffffffffffffffffffffffffffffff1673ffffffffffffffffffffffffffffffffffffffff16815260200190815260200160002060009054906101000a900460ff16905092915050565b61182f81670de0b6b3a764000061211490919063ffffffff16565b3414611870576040517f08c379a000000000000000000000000000000000000000000000000000000000815260040161186790614378565b60405180910390fd5b61187981612321565b50565b611884611a73565b73ffffffffffffffffffffffffffffffffffffffff168573ffffffffffffffffffffffffffffffffffffffff1614806118ca57506118c9856118c4611a73565b611780565b5b611909576040517f08c379a00000000000000000000000000000000000000000000000000000000081526004016119009061453c565b60405180910390fd5b61191685858585856124b5565b5050505050565b600460009054906101000a900473ffffffffffffffffffffffffffffffffffffffff1673ffffffffffffffffffffffffffffffffffffffff163373ffffffffffffffffffffffffffffffffffffffff16146119ad576040517f08c379a00000000000000000000000000000000000000000000000000000000081526004016119a490613e21565b60405180910390fd5b8060038190555050565b6000806119c46006612751565b606f6119d09190614496565b9050600a54816119e0919061406d565b600d81905550600d5491505090565b60007f01ffc9a7000000000000000000000000000000000000000000000000000000007bffffffffffffffffffffffffffffffffffffffffffffffffffffffff1916827bffffffffffffffffffffffffffffffffffffffffffffffffffffffff1916149050919050565b8060029080519060200190611a6f929190613002565b5050565b600033905090565b8151835114611abf576040517f08c379a0000000000000000000000000000000000000000000000000000000008152600401611ab6906145ce565b60405180910390fd5b600073ffffffffffffffffffffffffffffffffffffffff168473ffffffffffffffffffffffffffffffffffffffff161415611b2f576040517f08c379a0000000000000000000000000000000000000000000000000000000008152600401611b2690614660565b60405180910390fd5b6000611b39611a73565b9050611b4981878787878761275f565b60005b8451811015611cfa576000858281518110611b6a57611b69613fc6565b5b602002602001015190506000858381518110611b8957611b88613fc6565b5b60200260200101519050600080600084815260200190815260200160002060008b73ffffffffffffffffffffffffffffffffffffffff1673ffffffffffffffffffffffffffffffffffffffff16815260200190815260200160002054905081811015611c2a576040517f08c379a0000000000000000000000000000000000000000000000000000000008152600401611c21906146f2565b60405180910390fd5b81810360008085815260200190815260200160002060008c73ffffffffffffffffffffffffffffffffffffffff1673ffffffffffffffffffffffffffffffffffffffff168152602001908152602001600020819055508160008085815260200190815260200160002060008b73ffffffffffffffffffffffffffffffffffffffff1673ffffffffffffffffffffffffffffffffffffffff1681526020019081526020016000206000828254611cdf919061406d565b9250508190555050505080611cf390614024565b9050611b4c565b508473ffffffffffffffffffffffffffffffffffffffff168673ffffffffffffffffffffffffffffffffffffffff168273ffffffffffffffffffffffffffffffffffffffff167f4a39dc06d4c0dbc64b70af90fd698a233a518aa5d07e595d983b8c0526c8f7fb8787604051611d71929190614712565b60405180910390a4611d87818787878787612767565b611d9581878787878761276f565b505050505050565b600082611daa8584612947565b1490509392505050565b8173ffffffffffffffffffffffffffffffffffffffff168373ffffffffffffffffffffffffffffffffffffffff161415611e23576040517f08c379a0000000000000000000000000000000000000000000000000000000008152600401611e1a906147bb565b60405180910390fd5b80600160008573ffffffffffffffffffffffffffffffffffffffff1673ffffffffffffffffffffffffffffffffffffffff16815260200190815260200160002060008473ffffffffffffffffffffffffffffffffffffffff1673ffffffffffffffffffffffffffffffffffffffff16815260200190815260200160002060006101000a81548160ff0219169083151502179055508173ffffffffffffffffffffffffffffffffffffffff168373ffffffffffffffffffffffffffffffffffffffff167f17307eab39ab6107e8899845ad3d59bd9653f200f220920489ca2b5937696c3183604051611f149190613257565b60405180910390a3505050565b606060118054611f3090613e70565b80601f0160208091040260200160405190810160405280929190818152602001828054611f5c90613e70565b8015611fa95780601f10611f7e57610100808354040283529160200191611fa9565b820191906000526020600020905b815481529060010190602001808311611f8c57829003601f168201915b5050505050905090565b60606000821415611ffb576040518060400160405280600181526020017f3000000000000000000000000000000000000000000000000000000000000000815250905061210f565b600082905060005b6000821461202d57808061201690614024565b915050600a82612026919061480a565b9150612003565b60008167ffffffffffffffff8111156120495761204861328d565b5b6040519080825280601f01601f19166020018201604052801561207b5781602001600182028036833780820191505090505b5090505b60008514612108576001826120949190614496565b9150600a856120a3919061483b565b60306120af919061406d565b60f81b8183815181106120c5576120c4613fc6565b5b60200101907effffffffffffffffffffffffffffffffffffffffffffffffffffffffffffff1916908160001a905350600a85612101919061480a565b945061207f565b8093505050505b919050565b60008183612122919061486c565b905092915050565b60008160405160200161213d919061490e565b604051602081830303815290604052805190602001209050919050565b600073ffffffffffffffffffffffffffffffffffffffff168473ffffffffffffffffffffffffffffffffffffffff1614156121ca576040517f08c379a00000000000000000000000000000000000000000000000000000000081526004016121c19061499b565b60405180910390fd5b60006121d4611a73565b905060006121e1856129bc565b905060006121ee856129bc565b90506121ff8360008985858961275f565b8460008088815260200190815260200160002060008973ffffffffffffffffffffffffffffffffffffffff1673ffffffffffffffffffffffffffffffffffffffff168152602001908152602001600020600082825461225e919061406d565b925050819055508673ffffffffffffffffffffffffffffffffffffffff16600073ffffffffffffffffffffffffffffffffffffffff168473ffffffffffffffffffffffffffffffffffffffff167fc3d58168c5ae7397731d063d5bbf3d657854427343f4c083240f7aacaa2d0f6289896040516122dc9291906149bb565b60405180910390a46122f383600089858589612767565b61230283600089898989612a36565b50505050505050565b6001816000016000828254019250508190555050565b60026005541415612367576040517f08c379a000000000000000000000000000000000000000000000000000000000815260040161235e90614a30565b60405180910390fd5b6002600581905550612377610d63565b6123b6576040517f08c379a00000000000000000000000000000000000000000000000000000000081526004016123ad90614a9c565b60405180910390fd5b600081116123f9576040517f08c379a00000000000000000000000000000000000000000000000000000000081526004016123f090614b08565b60405180910390fd5b600d548160075461240a919061406d565b1161244a576040517f08c379a000000000000000000000000000000000000000000000000000000000815260040161244190614476565b60405180910390fd5b6124543382612c0e565b80601560003373ffffffffffffffffffffffffffffffffffffffff1673ffffffffffffffffffffffffffffffffffffffff16815260200190815260200160002060008282546124a3919061406d565b92505081905550600160058190555050565b600073ffffffffffffffffffffffffffffffffffffffff168473ffffffffffffffffffffffffffffffffffffffff161415612525576040517f08c379a000000000000000000000000000000000000000000000000000000000815260040161251c90614660565b60405180910390fd5b600061252f611a73565b9050600061253c856129bc565b90506000612549856129bc565b905061255983898985858961275f565b600080600088815260200190815260200160002060008a73ffffffffffffffffffffffffffffffffffffffff1673ffffffffffffffffffffffffffffffffffffffff168152602001908152602001600020549050858110156125f0576040517f08c379a00000000000000000000000000000000000000000000000000000000081526004016125e7906146f2565b60405180910390fd5b85810360008089815260200190815260200160002060008b73ffffffffffffffffffffffffffffffffffffffff1673ffffffffffffffffffffffffffffffffffffffff168152602001908152602001600020819055508560008089815260200190815260200160002060008a73ffffffffffffffffffffffffffffffffffffffff1673ffffffffffffffffffffffffffffffffffffffff16815260200190815260200160002060008282546126a5919061406d565b925050819055508773ffffffffffffffffffffffffffffffffffffffff168973ffffffffffffffffffffffffffffffffffffffff168573ffffffffffffffffffffffffffffffffffffffff167fc3d58168c5ae7397731d063d5bbf3d657854427343f4c083240f7aacaa2d0f628a8a6040516127229291906149bb565b60405180910390a4612738848a8a86868a612767565b612746848a8a8a8a8a612a36565b505050505050505050565b600081600001549050919050565b505050505050565b505050505050565b61278e8473ffffffffffffffffffffffffffffffffffffffff16612d9b565b1561293f578373ffffffffffffffffffffffffffffffffffffffff1663bc197c8187878686866040518663ffffffff1660e01b81526004016127d4959493929190614b7d565b6020604051808303816000875af192505050801561281057506040513d601f19601f8201168201806040525081019061280d9190614bfa565b60015b6128b65761281c614c34565b806308c379a014156128795750612831614c56565b8061283c575061287b565b806040517f08c379a00000000000000000000000000000000000000000000000000000000081526004016128709190613489565b60405180910390fd5b505b6040517f08c379a00000000000000000000000000000000000000000000000000000000081526004016128ad90614d5e565b60405180910390fd5b63bc197c8160e01b7bffffffffffffffffffffffffffffffffffffffffffffffffffffffff1916817bffffffffffffffffffffffffffffffffffffffffffffffffffffffff19161461293d576040517f08c379a000000000000000000000000000000000000000000000000000000000815260040161293490614df0565b60405180910390fd5b505b505050505050565b60008082905060005b84518110156129b157600085828151811061296e5761296d613fc6565b5b60200260200101519050808311612990576129898382612dbe565b925061299d565b61299a8184612dbe565b92505b5080806129a990614024565b915050612950565b508091505092915050565b60606000600167ffffffffffffffff8111156129db576129da61328d565b5b604051908082528060200260200182016040528015612a095781602001602082028036833780820191505090505b5090508281600081518110612a2157612a20613fc6565b5b60200260200101818152505080915050919050565b612a558473ffffffffffffffffffffffffffffffffffffffff16612d9b565b15612c06578373ffffffffffffffffffffffffffffffffffffffff1663f23a6e6187878686866040518663ffffffff1660e01b8152600401612a9b959493929190614e10565b6020604051808303816000875af1925050508015612ad757506040513d601f19601f82011682018060405250810190612ad49190614bfa565b60015b612b7d57612ae3614c34565b806308c379a01415612b405750612af8614c56565b80612b035750612b42565b806040517f08c379a0000000000000000000000000000000000000000000000000000000008152600401612b379190613489565b60405180910390fd5b505b6040517f08c379a0000000000000000000000000000000000000000000000000000000008152600401612b7490614d5e565b60405180910390fd5b63f23a6e6160e01b7bffffffffffffffffffffffffffffffffffffffffffffffffffffffff1916817bffffffffffffffffffffffffffffffffffffffffffffffffffffffff191614612c04576040517f08c379a0000000000000000000000000000000000000000000000000000000008152600401612bfb90614df0565b60405180910390fd5b505b505050505050565b6001811115612d5f5760008167ffffffffffffffff811115612c3357612c3261328d565b5b604051908082528060200260200182016040528015612c615781602001602082028036833780820191505090505b50905060008267ffffffffffffffff811115612c8057612c7f61328d565b5b604051908082528060200260200182016040528015612cae5781602001602082028036833780820191505090505b50905060005b83811015612d1d5780600754612cca919061406d565b838281518110612cdd57612cdc613fc6565b5b6020026020010181815250506001828281518110612cfe57612cfd613fc6565b5b6020026020010181815250508080612d1590614024565b915050612cb4565b50612d3984838360405180602001604052806000815250612dd5565b60005b83811015612d57578080612d4f90614024565b915050612d3c565b505050612d7e565b612d7d8260075460016040518060200160405280600081525061215a565b5b8060076000828254612d90919061406d565b925050819055505050565b6000808273ffffffffffffffffffffffffffffffffffffffff163b119050919050565b600082600052816020526040600020905092915050565b600073ffffffffffffffffffffffffffffffffffffffff168473ffffffffffffffffffffffffffffffffffffffff161415612e45576040517f08c379a0000000000000000000000000000000000000000000000000000000008152600401612e3c9061499b565b60405180910390fd5b8151835114612e89576040517f08c379a0000000000000000000000000000000000000000000000000000000008152600401612e80906145ce565b60405180910390fd5b6000612e93611a73565b9050612ea48160008787878761275f565b60005b8451811015612f5d57838181518110612ec357612ec2613fc6565b5b6020026020010151600080878481518110612ee157612ee0613fc6565b5b6020026020010151815260200190815260200160002060008873ffffffffffffffffffffffffffffffffffffffff1673ffffffffffffffffffffffffffffffffffffffff1681526020019081526020016000206000828254612f43919061406d565b925050819055508080612f5590614024565b915050612ea7565b508473ffffffffffffffffffffffffffffffffffffffff16600073ffffffffffffffffffffffffffffffffffffffff168273ffffffffffffffffffffffffffffffffffffffff167f4a39dc06d4c0dbc64b70af90fd698a233a518aa5d07e595d983b8c0526c8f7fb8787604051612fd5929190614712565b60405180910390a4612fec81600087878787612767565b612ffb8160008787878761276f565b5050505050565b82805461300e90613e70565b90600052602060002090601f0160209004810192826130305760008555613077565b82601f1061304957805160ff1916838001178555613077565b82800160010185558215613077579182015b8281111561307657825182559160200191906001019061305b565b5b5090506130849190613088565b5090565b5b808211156130a1576000816000905550600101613089565b5090565b6000604051905090565b600080fd5b600080fd5b600073ffffffffffffffffffffffffffffffffffffffff82169050919050565b60006130e4826130b9565b9050919050565b6130f4816130d9565b81146130ff57600080fd5b50565b600081359050613111816130eb565b92915050565b6000819050919050565b61312a81613117565b811461313557600080fd5b50565b60008135905061314781613121565b92915050565b60008060408385031215613164576131636130af565b5b600061317285828601613102565b925050602061318385828601613138565b9150509250929050565b61319681613117565b82525050565b60006020820190506131b1600083018461318d565b92915050565b60007fffffffff0000000000000000000000000000000000000000000000000000000082169050919050565b6131ec816131b7565b81146131f757600080fd5b50565b600081359050613209816131e3565b92915050565b600060208284031215613225576132246130af565b5b6000613233848285016131fa565b91505092915050565b60008115159050919050565b6132518161323c565b82525050565b600060208201905061326c6000830184613248565b92915050565b600080fd5b600080fd5b6000601f19601f8301169050919050565b7f4e487b7100000000000000000000000000000000000000000000000000000000600052604160045260246000fd5b6132c58261327c565b810181811067ffffffffffffffff821117156132e4576132e361328d565b5b80604052505050565b60006132f76130a5565b905061330382826132bc565b919050565b600067ffffffffffffffff8211156133235761332261328d565b5b61332c8261327c565b9050602081019050919050565b82818337600083830152505050565b600061335b61335684613308565b6132ed565b90508281526020810184848401111561337757613376613277565b5b613382848285613339565b509392505050565b600082601f83011261339f5761339e613272565b5b81356133af848260208601613348565b91505092915050565b6000602082840312156133ce576133cd6130af565b5b600082013567ffffffffffffffff8111156133ec576133eb6130b4565b5b6133f88482850161338a565b91505092915050565b600081519050919050565b600082825260208201905092915050565b60005b8381101561343b578082015181840152602081019050613420565b8381111561344a576000848401525b50505050565b600061345b82613401565b613465818561340c565b935061347581856020860161341d565b61347e8161327c565b840191505092915050565b600060208201905081810360008301526134a38184613450565b905092915050565b6000602082840312156134c1576134c06130af565b5b60006134cf84828501613138565b91505092915050565b600067ffffffffffffffff8211156134f3576134f261328d565b5b602082029050602081019050919050565b600080fd5b600061351c613517846134d8565b6132ed565b9050808382526020820190506020840283018581111561353f5761353e613504565b5b835b8181101561356857806135548882613138565b845260208401935050602081019050613541565b5050509392505050565b600082601f83011261358757613586613272565b5b8135613597848260208601613509565b91505092915050565b600067ffffffffffffffff8211156135bb576135ba61328d565b5b6135c48261327c565b9050602081019050919050565b60006135e46135df846135a0565b6132ed565b905082815260208101848484011115613600576135ff613277565b5b61360b848285613339565b509392505050565b600082601f83011261362857613627613272565b5b81356136388482602086016135d1565b91505092915050565b600080600080600060a0868803121561365d5761365c6130af565b5b600061366b88828901613102565b955050602061367c88828901613102565b945050604086013567ffffffffffffffff81111561369d5761369c6130b4565b5b6136a988828901613572565b935050606086013567ffffffffffffffff8111156136ca576136c96130b4565b5b6136d688828901613572565b925050608086013567ffffffffffffffff8111156136f7576136f66130b4565b5b61370388828901613613565b9150509295509295909350565b600060208284031215613726576137256130af565b5b600061373484828501613102565b91505092915050565b600067ffffffffffffffff8211156137585761375761328d565b5b602082029050602081019050919050565b600061377c6137778461373d565b6132ed565b9050808382526020820190506020840283018581111561379f5761379e613504565b5b835b818110156137c857806137b48882613102565b8452602084019350506020810190506137a1565b5050509392505050565b600082601f8301126137e7576137e6613272565b5b81356137f7848260208601613769565b91505092915050565b60008060408385031215613817576138166130af565b5b600083013567ffffffffffffffff811115613835576138346130b4565b5b613841858286016137d2565b925050602083013567ffffffffffffffff811115613862576138616130b4565b5b61386e85828601613572565b9150509250929050565b600081519050919050565b600082825260208201905092915050565b6000819050602082019050919050565b6138ad81613117565b82525050565b60006138bf83836138a4565b60208301905092915050565b6000602082019050919050565b60006138e382613878565b6138ed8185613883565b93506138f883613894565b8060005b8381101561392957815161391088826138b3565b975061391b836138cb565b9250506001810190506138fc565b5085935050505092915050565b6000602082019050818103600083015261395081846138d8565b905092915050565b613961816130d9565b82525050565b600060208201905061397c6000830184613958565b92915050565b6000819050919050565b61399581613982565b81146139a057600080fd5b50565b6000813590506139b28161398c565b92915050565b600067ffffffffffffffff8211156139d3576139d261328d565b5b602082029050602081019050919050565b60006139f76139f2846139b8565b6132ed565b90508083825260208201905060208402830185811115613a1a57613a19613504565b5b835b81811015613a435780613a2f88826139a3565b845260208401935050602081019050613a1c565b5050509392505050565b600082601f830112613a6257613a61613272565b5b8135613a728482602086016139e4565b91505092915050565b60008060408385031215613a9257613a916130af565b5b6000613aa0858286016139a3565b925050602083013567ffffffffffffffff811115613ac157613ac06130b4565b5b613acd85828601613a4d565b9150509250929050565b613ae08161323c565b8114613aeb57600080fd5b50565b600081359050613afd81613ad7565b92915050565b60008060408385031215613b1a57613b196130af565b5b6000613b2885828601613102565b9250506020613b3985828601613aee565b9150509250929050565b600060208284031215613b5957613b586130af565b5b6000613b6784828501613aee565b91505092915050565b600080fd5b60008083601f840112613b8b57613b8a613272565b5b8235905067ffffffffffffffff811115613ba857613ba7613b70565b5b602083019150836020820283011115613bc457613bc3613504565b5b9250929050565b60008060008060608587031215613be557613be46130af565b5b6000613bf387828801613138565b9450506020613c0487828801613138565b935050604085013567ffffffffffffffff811115613c2557613c246130b4565b5b613c3187828801613b75565b925092505092959194509250565b60008060408385031215613c5657613c556130af565b5b6000613c6485828601613102565b9250506020613c7585828601613102565b9150509250929050565b600080600080600060a08688031215613c9b57613c9a6130af565b5b6000613ca988828901613102565b9550506020613cba88828901613102565b9450506040613ccb88828901613138565b9350506060613cdc88828901613138565b925050608086013567ffffffffffffffff811115613cfd57613cfc6130b4565b5b613d0988828901613613565b9150509295509295909350565b600060208284031215613d2c57613d2b6130af565b5b6000613d3a848285016139a3565b91505092915050565b7f455243313135353a2062616c616e636520717565727920666f7220746865207a60008201527f65726f2061646472657373000000000000000000000000000000000000000000602082015250565b6000613d9f602b8361340c565b9150613daa82613d43565b604082019050919050565b60006020820190508181036000830152613dce81613d92565b9050919050565b7f4f6e6c79206f6e6c794f776e657263616e2063616c6c20746869730000000000600082015250565b6000613e0b601b8361340c565b9150613e1682613dd5565b602082019050919050565b60006020820190508181036000830152613e3a81613dfe565b9050919050565b7f4e487b7100000000000000000000000000000000000000000000000000000000600052602260045260246000fd5b60006002820490506001821680613e8857607f821691505b60208210811415613e9c57613e9b613e41565b5b50919050565b7f455243313135353a207472616e736665722063616c6c6572206973206e6f742060008201527f6f776e6572206e6f7220617070726f7665640000000000000000000000000000602082015250565b6000613efe60328361340c565b9150613f0982613ea2565b604082019050919050565b60006020820190508181036000830152613f2d81613ef1565b9050919050565b7f455243313135353a206163636f756e747320616e6420696473206c656e67746860008201527f206d69736d617463680000000000000000000000000000000000000000000000602082015250565b6000613f9060298361340c565b9150613f9b82613f34565b604082019050919050565b60006020820190508181036000830152613fbf81613f83565b9050919050565b7f4e487b7100000000000000000000000000000000000000000000000000000000600052603260045260246000fd5b7f4e487b7100000000000000000000000000000000000000000000000000000000600052601160045260246000fd5b600061402f82613117565b91507fffffffffffffffffffffffffffffffffffffffffffffffffffffffffffffffff82141561406257614061613ff5565b5b600182019050919050565b600061407882613117565b915061408383613117565b9250827fffffffffffffffffffffffffffffffffffffffffffffffffffffffffffffffff038211156140b8576140b7613ff5565b5b828201905092915050565b7f6e6f74206861766520656e6f7567682062616c616e6365000000000000000000600082015250565b60006140f960178361340c565b9150614104826140c3565b602082019050919050565b60006020820190508181036000830152614128816140ec565b9050919050565b600081905092915050565b600061414582613401565b61414f818561412f565b935061415f81856020860161341d565b80840191505092915050565b7f2e6a736f6e000000000000000000000000000000000000000000000000000000600082015250565b60006141a160058361412f565b91506141ac8261416b565b600582019050919050565b60006141c3828561413a565b91506141cf828461413a565b91506141da82614194565b91508190509392505050565b7f68696464656e2e6a736f6e000000000000000000000000000000000000000000600082015250565b600061421c600b8361412f565b9150614227826141e6565b600b82019050919050565b600061423e828461413a565b91506142498261420f565b915081905092915050565b7f6f6e6c792031206f7074696f6e00000000000000000000000000000000000000600082015250565b600061428a600d8361340c565b915061429582614254565b602082019050919050565b600060208201905081810360008301526142b98161427d565b9050919050565b7f5072652d73616c65206973206e6f74206163746976652e000000000000000000600082015250565b60006142f660178361340c565b9150614301826142c0565b602082019050919050565b60006020820190508181036000830152614325816142e9565b9050919050565b7f4e6f7420656e6f7567682065746865722e000000000000000000000000000000600082015250565b600061436260118361340c565b915061436d8261432c565b602082019050919050565b6000602082019050818103600083015261439181614355565b9050919050565b7f596f7520617265206e6f742077686974656c69737465642e0000000000000000600082015250565b60006143ce60188361340c565b91506143d982614398565b602082019050919050565b600060208201905081810360008301526143fd816143c1565b9050919050565b7f436f756e74206578636565647320746865206d6178696d756d20616c6c6f776560008201527f6420737570706c792e0000000000000000000000000000000000000000000000602082015250565b600061446060298361340c565b915061446b82614404565b604082019050919050565b6000602082019050818103600083015261448f81614453565b9050919050565b60006144a182613117565b91506144ac83613117565b9250828210156144bf576144be613ff5565b5b828203905092915050565b7f455243313135353a2063616c6c6572206973206e6f74206f776e6572206e6f7260008201527f20617070726f7665640000000000000000000000000000000000000000000000602082015250565b600061452660298361340c565b9150614531826144ca565b604082019050919050565b6000602082019050818103600083015261455581614519565b9050919050565b7f455243313135353a2069647320616e6420616d6f756e7473206c656e6774682060008201527f6d69736d61746368000000000000000000000000000000000000000000000000602082015250565b60006145b860288361340c565b91506145c38261455c565b604082019050919050565b600060208201905081810360008301526145e7816145ab565b9050919050565b7f455243313135353a207472616e7366657220746f20746865207a65726f20616460008201527f6472657373000000000000000000000000000000000000000000000000000000602082015250565b600061464a60258361340c565b9150614655826145ee565b604082019050919050565b600060208201905081810360008301526146798161463d565b9050919050565b7f455243313135353a20696e73756666696369656e742062616c616e636520666f60008201527f72207472616e7366657200000000000000000000000000000000000000000000602082015250565b60006146dc602a8361340c565b91506146e782614680565b604082019050919050565b6000602082019050818103600083015261470b816146cf565b9050919050565b6000604082019050818103600083015261472c81856138d8565b9050818103602083015261474081846138d8565b90509392505050565b7f455243313135353a2073657474696e6720617070726f76616c2073746174757360008201527f20666f722073656c660000000000000000000000000000000000000000000000602082015250565b60006147a560298361340c565b91506147b082614749565b604082019050919050565b600060208201905081810360008301526147d481614798565b9050919050565b7f4e487b7100000000000000000000000000000000000000000000000000000000600052601260045260246000fd5b600061481582613117565b915061482083613117565b9250826148305761482f6147db565b5b828204905092915050565b600061484682613117565b915061485183613117565b925082614861576148606147db565b5b828206905092915050565b600061487782613117565b915061488283613117565b9250817fffffffffffffffffffffffffffffffffffffffffffffffffffffffffffffffff04831182151516156148bb576148ba613ff5565b5b828202905092915050565b60008160601b9050919050565b60006148de826148c6565b9050919050565b60006148f0826148d3565b9050919050565b614908614903826130d9565b6148e5565b82525050565b600061491a82846148f7565b60148201915081905092915050565b7f455243313135353a206d696e7420746f20746865207a65726f2061646472657360008201527f7300000000000000000000000000000000000000000000000000000000000000602082015250565b600061498560218361340c565b915061499082614929565b604082019050919050565b600060208201905081810360008301526149b481614978565b9050919050565b60006040820190506149d0600083018561318d565b6149dd602083018461318d565b9392505050565b7f5265656e7472616e637947756172643a207265656e7472616e742063616c6c00600082015250565b6000614a1a601f8361340c565b9150614a25826149e4565b602082019050919050565b60006020820190508181036000830152614a4981614a0d565b9050919050565b7f5075626c69632073616c65206973206e6f74206163746976652e000000000000600082015250565b6000614a86601a8361340c565b9150614a9182614a50565b602082019050919050565b60006020820190508181036000830152614ab581614a79565b9050919050565b7f436f756e74206d7573742062652067726561746572207468616e20302e000000600082015250565b6000614af2601d8361340c565b9150614afd82614abc565b602082019050919050565b60006020820190508181036000830152614b2181614ae5565b9050919050565b600081519050919050565b600082825260208201905092915050565b6000614b4f82614b28565b614b598185614b33565b9350614b6981856020860161341d565b614b728161327c565b840191505092915050565b600060a082019050614b926000830188613958565b614b9f6020830187613958565b8181036040830152614bb181866138d8565b90508181036060830152614bc581856138d8565b90508181036080830152614bd98184614b44565b90509695505050505050565b600081519050614bf4816131e3565b92915050565b600060208284031215614c1057614c0f6130af565b5b6000614c1e84828501614be5565b91505092915050565b60008160e01c9050919050565b600060033d1115614c535760046000803e614c50600051614c27565b90505b90565b600060443d1015614c6657614ce9565b614c6e6130a5565b60043d036004823e80513d602482011167ffffffffffffffff82111715614c96575050614ce9565b808201805167ffffffffffffffff811115614cb45750505050614ce9565b80602083010160043d038501811115614cd1575050505050614ce9565b614ce0826020018501866132bc565b82955050505050505b90565b7f455243313135353a207472616e7366657220746f206e6f6e204552433131353560008201527f526563656976657220696d706c656d656e746572000000000000000000000000602082015250565b6000614d4860348361340c565b9150614d5382614cec565b604082019050919050565b60006020820190508181036000830152614d7781614d3b565b9050919050565b7f455243313135353a204552433131353552656365697665722072656a6563746560008201527f6420746f6b656e73000000000000000000000000000000000000000000000000602082015250565b6000614dda60288361340c565b9150614de582614d7e565b604082019050919050565b60006020820190508181036000830152614e0981614dcd565b9050919050565b600060a082019050614e256000830188613958565b614e326020830187613958565b614e3f604083018661318d565b614e4c606083018561318d565b8181036080830152614e5e8184614b44565b9050969550505050505056fea26469706673582212204d545db627949e692a236b65d137e437399b59b4d5a06bd5132c4a74163b03f064736f6c634300080b0033",
  "immutableReferences": {},
  "source": "// SPDX-License-Identifier: MIT\npragma solidity ^0.8.2;\n\nimport \"@openzeppelin/contracts/token/ERC1155/ERC1155.sol\";\nimport \"@openzeppelin/contracts/security/ReentrancyGuard.sol\";\nimport \"@openzeppelin/contracts/utils/math/SafeMath.sol\";\nimport \"@openzeppelin/contracts/utils/Counters.sol\";\nimport \"@openzeppelin/contracts/utils/Strings.sol\";\n\nimport \"@openzeppelin/contracts/utils/cryptography/MerkleProof.sol\";\n\n// import \"@openzeppelin/contracts/access/Ownable.sol\";\n\ninterface IERC20 {\n    /**\n     * @dev Returns the amount of tokens in existence.\n     */\n    function totalSupply() external view returns (uint256);\n\n    /**\n     * @dev Returns the amount of tokens owned by `account`.\n     */\n    function balanceOf(address account) external view returns (uint256);\n\n    /**\n     * @dev Moves `amount` tokens from the caller's account to `to`.\n     *\n     * Returns a boolean value indicating whether the operation succeeded.\n     *\n     * Emits a {Transfer} event.\n     */\n    function transfer(address to, uint256 amount) external returns (bool);\n\n    /**\n     * @dev Returns the remaining number of tokens that `spender` will be\n     * allowed to spend on behalf of `owner` through {transferFrom}. This is\n     * zero by default.\n     *\n     * This value changes when {approve} or {transferFrom} are called.\n     */\n    function allowance(address owner, address spender)\n        external\n        view\n        returns (uint256);\n\n    /**\n     * @dev Sets `amount` as the allowance of `spender` over the caller's tokens.\n     *\n     * Returns a boolean value indicating whether the operation succeeded.\n     *\n     * IMPORTANT: Beware that changing an allowance with this method brings the risk\n     * that someone may use both the old and the new allowance by unfortunate\n     * transaction ordering. One possible solution to mitigate this race\n     * condition is to first reduce the spender's allowance to 0 and set the\n     * desired value afterwards:\n     * https://github.com/ethereum/EIPs/issues/20#issuecomment-263524729\n     *\n     * Emits an {Approval} event.\n     */\n    function approve(address spender, uint256 amount) external returns (bool);\n\n    /**\n     * @dev Moves `amount` tokens from `from` to `to` using the\n     * allowance mechanism. `amount` is then deducted from the caller's\n     * allowance.\n     *\n     * Returns a boolean value indicating whether the operation succeeded.\n     *\n     * Emits a {Transfer} event.\n     */\n    function transferFrom(\n        address from,\n        address to,\n        uint256 amount\n    ) external returns (bool);\n\n    /**\n     * @dev Emitted when `value` tokens are moved from one account (`from`) to\n     * another (`to`).\n     *\n     * Note that `value` may be zero.\n     */\n    event Transfer(address indexed from, address indexed to, uint256 value);\n\n    /**\n     * @dev Emitted when the allowance of a `spender` for an `owner` is set by\n     * a call to {approve}. `value` is the new allowance.\n     */\n    event Approval(\n        address indexed owner,\n        address indexed spender,\n        uint256 value\n    );\n}\n\ncontract Merkle {\n    bytes32 private whitelist;\n    //////////////////////////////\n    address public OwnerOnly;\n\n    constructor(bytes32 _whitelistHash) {\n        whitelist = _whitelistHash;\n        OwnerOnly = msg.sender;\n    }\n\n    // Modifiers\n    modifier onlyOwner() {\n        require((msg.sender == OwnerOnly), \"Only onlyOwnercan call this\");\n        _;\n    }\n\n    function _whitelistHashLeaf(address account)\n        internal\n        pure\n        returns (bytes32)\n    {\n        return keccak256(abi.encodePacked(account));\n    }\n\n    function _whitelistHashVerify(bytes32 leaf, bytes32[] memory proof)\n        public\n        view\n        returns (bool)\n    {\n        return MerkleProof.verify(proof, whitelist, leaf);\n    }\n\n    function setWhitelistRoot(bytes32 _root) external onlyOwner {\n        whitelist = _root;\n    }\n}\n\ncontract OneOneFive is ERC1155, Merkle, ReentrancyGuard {\n    using Counters for Counters.Counter;\n    Counters.Counter public _itemsSold;\n\n    using SafeMath for uint256;\n\n    string public constant name = \"OneOneFive\";\n    string public constant symbol = \"OOF\";\n\n    uint256 public totalSupply = 0;\n\n    uint256 public constant presalePriceInEth = 0.05 ether;\n    uint256 public constant publicsalePriceInEth = 1 ether;\n\n    uint256 public preSaleStart; //Epoch & Unix Timestamp Conversion Tools aug1\n\n    uint256 public constant preSaleMaxSupply = 111;\n\n    uint256 public publicSaleStart; //Epoch & Unix Timestamp Conversion Tools aug16\n\n    uint256 public publicSaleMaxSupply = 444;\n\n    uint256 constant MAX_Pre_INTERACTIONS = 1;\n    uint256 constant MAX_Public_INTERACTIONS = 3;\n\n    uint256[] minted = [0, 0, 0];\n    uint256 public presaleRemaining;\n    uint256 public remaingtoken;\n    uint256 public saleClose;\n\n    mapping(address => bool) public isOwner;\n\n    bool public onlyWhitelisted = true;\n\n    string public baseURI = \"ipfs://THISISTHECID/\";\n    bool public revealed = false;\n\n    mapping(address => uint256) interactionCount;\n\n    modifier limit() {\n        require(\n            interactionCount[msg.sender] < MAX_Pre_INTERACTIONS,\n            \"only 1 option\"\n        );\n        interactionCount[msg.sender]++;\n\n        _;\n    }\n\n    modifier publiclimit() {\n        require(\n            interactionCount[msg.sender] < MAX_Public_INTERACTIONS,\n            \"only 3 option\"\n        );\n        interactionCount[msg.sender]++;\n\n        _;\n    }\n\n    mapping(address => uint256) whitelist;\n    mapping(address => uint256) publiclist;\n\n    constructor(bytes32 _whitelistHashHashRoot, string memory uri)\n        payable\n        Merkle(_whitelistHashHashRoot)\n        ERC1155(uri)\n    {}\n\n    function setURI(string memory uri) public onlyOwner {\n        _setURI(uri);\n    }\n\n    /////////////////////////////PRESALE PUBLICSALE TIME CHECKING//////////\n    function setPreSaleStart(uint256 timestamp) public onlyOwner {\n        preSaleStart = timestamp;\n        saleClose = 2 minutes + timestamp;\n    }\n\n    function setPublicSaleStart(uint256 timestamp) public onlyOwner {\n        publicSaleStart = timestamp;\n    }\n\n    function preSaleIsActive() public view returns (bool) {\n        return preSaleStart <= block.timestamp;\n    }\n\n    function publicSaleIsActive() public view returns (bool) {\n        return (block.timestamp >= saleClose);\n    }\n\n    /////////---------------------------------minting--public-----------------------------/////////////\n\n    function mint(\n        uint256 id,\n        uint256 count,\n        bytes32[] calldata proof\n    ) public payable limit {\n        require(preSaleIsActive(), \"Pre-sale is not active.\");\n\n        require(msg.value == presalePriceInEth.mul(count), \"Not enough ether.\");\n\n        require(\n            _whitelistHashVerify(_whitelistHashLeaf(msg.sender), proof),\n            \"You are not whitelisted.\"\n        );\n        require(\n            totalSupply < preSaleMaxSupply,\n            \"Count exceeds the maximum allowed supply.\"\n        );\n\n        uint256 index = id - 1;\n        _mint(msg.sender, id, count, \"\");\n        minted[index] += count;\n        _itemsSold.increment();\n    }\n\n    function _baseURI() internal view returns (string memory) {\n        return baseURI;\n    }\n\n    function changeBaseURI(string memory baseURI_) public onlyOwner {\n        baseURI = baseURI_;\n    }\n\n    function changeRevealed(bool _revealed) public onlyOwner {\n        revealed = _revealed;\n    }\n\n    function tokenURI(uint256 tokenId) public view returns (string memory) {\n        string memory baseURI_ = _baseURI();\n\n        if (revealed) {\n            return\n                bytes(baseURI_).length > 0\n                    ? string(\n                        abi.encodePacked(\n                            baseURI_,\n                            Strings.toString(tokenId),\n                            \".json\"\n                        )\n                    )\n                    : \"\";\n        } else {\n            return string(abi.encodePacked(baseURI_, \"hidden.json\"));\n        }\n    }\n\n    function unsolded() public returns (uint256) {\n        uint256 presaleRemainingvar = preSaleMaxSupply - _itemsSold.current();\n        remaingtoken = presaleRemainingvar + publicSaleMaxSupply;\n        return remaingtoken;\n    }\n\n    function getUnsolded() external view returns (uint256) {\n        return remaingtoken;\n    }\n\n    function publicSaleMintf(address to, uint256 count) internal {\n        if (count > 1) {\n            uint256[] memory ids = new uint256[](uint256(count));\n            uint256[] memory amounts = new uint256[](uint256(count));\n\n            for (uint256 i = 0; i < count; i++) {\n                ids[i] = totalSupply + i;\n                amounts[i] = 1;\n            }\n\n            _mintBatch(to, ids, amounts, \"\");\n\n            for (uint256 i = 0; i < count; i++) {}\n        } else {\n            _mint(to, totalSupply, 1, \"\");\n        }\n\n        totalSupply += count;\n    }\n\n    function publicSaleMint(uint256 count) internal nonReentrant {\n        require(publicSaleIsActive(), \"Public sale is not active.\");\n        require(count > 0, \"Count must be greater than 0.\");\n        //\n        require(\n            totalSupply + count > remaingtoken,\n            \"Count exceeds the maximum allowed supply.\"\n        );\n\n        publicSaleMintf(msg.sender, count);\n        publiclist[msg.sender] += count;\n    }\n\n    function publicSaleMintWithEth(uint256 count) external payable {\n        require(\n            msg.value == publicsalePriceInEth.mul(count),\n            \"Not enough ether.\"\n        );\n        publicSaleMint(count);\n    }\n\n    function getBalance() public view returns (uint256) {\n        return address(this).balance;\n    }\n\n    function withdrawMoney() public onlyOwner {\n        uint256 balance = address(this).balance;\n        require(balance > 0, \"not have enough balance\");\n        address payable to = payable(msg.sender);\n        to.transfer(balance);\n    }\n}\n",
  "sourcePath": "/home/nextazy/Documents/Ethereum/crud (1)/erc1155/contracts/OneOneFive.sol",
  "compiler": {
    "name": "solc",
    "version": "0.8.11+commit.d7f03943.Emscripten.clang"
  },
  "schemaVersion": "3.4.5",
  "updatedAt": "2022-06-15T07:02:38.878Z",
  "networkType": "ethereum",
  "devdoc": {
    "kind": "dev",
    "methods": {
      "balanceOf(address,uint256)": {
        "details": "See {IERC1155-balanceOf}. Requirements: - `account` cannot be the zero address."
      },
      "balanceOfBatch(address[],uint256[])": {
        "details": "See {IERC1155-balanceOfBatch}. Requirements: - `accounts` and `ids` must have the same length."
      },
      "isApprovedForAll(address,address)": {
        "details": "See {IERC1155-isApprovedForAll}."
      },
      "safeBatchTransferFrom(address,address,uint256[],uint256[],bytes)": {
        "details": "See {IERC1155-safeBatchTransferFrom}."
      },
      "safeTransferFrom(address,address,uint256,uint256,bytes)": {
        "details": "See {IERC1155-safeTransferFrom}."
      },
      "setApprovalForAll(address,bool)": {
        "details": "See {IERC1155-setApprovalForAll}."
      },
      "supportsInterface(bytes4)": {
        "details": "See {IERC165-supportsInterface}."
      },
      "uri(uint256)": {
        "details": "See {IERC1155MetadataURI-uri}. This implementation returns the same URI for *all* token types. It relies on the token type ID substitution mechanism https://eips.ethereum.org/EIPS/eip-1155#metadata[defined in the EIP]. Clients calling this function must replace the `\\{id\\}` substring with the actual token type ID."
      }
    },
    "version": 1
  },
  "userdoc": {
    "kind": "user",
    "methods": {},
    "version": 1
  }
}